:020000022000DC
:1060000000000420E1620200096302000B63020049
:106010000D6302000F630200116302000000000024
:1060200000000000000000000000000013630200F8
:1060300015630200000000001763020019630200EC
:10604000E98F02001B630200CD990200259A02002D
:106050001B6302001B630200D9930200F9B3020024
:106060001B6302001B6302001B6302001B63020030
:106070001B6302001B6302001B6302001B63020020
:106080001B630200317302001B6302001B630200EA
:10609000D17302001B6302006DF002001B6302005B
:1060A0001B6302001B6302001B6302001B630200F0
:1060B0001B6302001B6302000000000000000000E0
:1060C0001B6302001B6302001B6302001B630200D0
:1060D0001B6302001B6302001B6302001B630200C0
:1060E0001B6302001B6302001B6302000000000030
:1060F000000000001B630200000000001B630200A0
:10610000000000000000000000000000000000008F
:10611000000000000000000000000000000000007F
:10612000000000000000000000000000000000006F
:10613000000000000000000000000000000000005F
:10614000000000000000000000000000000000004F
:10615000000000000000000000000000000000003F
:10616000000000000000000000000000000000002F
:10617000000000000000000000000000000000001F
:10618000000000000000000000000000000000000F
:1061900000000000000000000000000000000000FF
:1061A00000000000000000000000000000000000EF
:1061B00000000000000000000000000000000000DF
:1061C00000000000000000000000000000000000CF
:1061D00000000000000000000000000000000000BF
:1061E00000000000000000000000000000000000AF
:1061F000000000000000000000000000000000009F
:1062000010B5054C237833B9044B13B10448AFF3F0
:1062100000800123237010BDC82C00200000000066
:10622000C81C03000C4B43B10C480D4910B5AFF32B
:1062300000800C48036823B910BD0A48036833B9CD
:106240007047094B002BF7D0BDE810401847064BAC
:10625000002BF5D0184700BF00000000C81C030049
:10626000CC2C0020C42C002000000000154B002B7B
:1062700008BF134B9D46A3F5803A00218B460F467D
:106280001348144A121A09F0FEF80F4B002B00D0E5
:1062900098470E4B002B00D09847002000210400A7
:1062A0000D000D48002802D00C48AFF3008009F023
:1062B0009BF82000290006F04FF809F081F800BF94
:1062C00000000800000004200000000000000000A2
:1062D000C82C00202040002000000000000000002A
:1062E0000649074A074B9B1A03DD043BC858D050A8
:1062F000FBDC02F0B7FBFFF7B9FF0000D81D03007D
:10630000982A0020C82C0020FEE7FEE7FEE7FEE703
:10631000FEE7FEE7FEE7FEE7FEE7FEE7704700BFA9
:1063200000B583B0044B0093044A402300F036F8D4
:1063300003B05DF804FB00BF41630200E82C0020BD
:1063400002B32DE9F843114B114E8846144643F031
:10635000010903270025224608EB0501002006F06D
:10636000E9FE03461D444FF47A40E41A23B933781A
:1063700033B1C847013F06D001233370002CEAD166
:10638000BDE8F88370473770BDE8F883200A030042
:10639000E42C0020704700BF06F090BFF0B595B028
:1063A000002415460F4608461E4602F04DF93846B1
:1063B00023460822089505A91A9D09960D950A9469
:1063C0008DF82C400C9402F09BF99DF8143007983E
:1063D00006998DF8114003F00302012A02900391FF
:1063E00028D0022A04D0384602F032F915B0F0BDA8
:1063F000BDF81650C3F3C2038DF81030C5F38915EC
:106400000826082D2C4628BF0824334622460EA90C
:10641000384602F075F92D1B214608AB02AA0EA8DA
:10642000264400F03DFD002DEBD1384602F010F976
:1064300015B0F0BDBDF81460059DC6F38316C3F317
:10644000C204B2000EA9384608238DF81040C5F3E7
:10645000952502F055F908AB0093324628460EA95F
:1064600002AB00F077FCBEE708B5FFF795FF04210B
:10647000034800F027FC034B01225A7108BD00BFFE
:10648000C01D0300982A0020F0B5334D85B005F5F6
:10649000836001F099FC05F2144001F095FC6B68F3
:1064A000AE6803EA0600C11C05EB810215F8214025
:1064B00014F004040ED0117801F0030101293BD03F
:1064C000022903F1020700F1030126D005EB810246
:1064D000002CF0D105EB80005A1CC16801913240BC
:1064E00005EB820201F00301D2680292012903F157
:1064F000020429D0022925D1BDF80630BDF80A6072
:10650000C3F38913033304EB9304144801F06AFCCA
:1065100000B16C60304605B0F0BD538807EB9313B3
:1065200006EA0300C11C05EB810215F8214004F0C6
:106530000404002CBFD1CDE711880233C1F38311CD
:106540000B44EDE70026E0E7BDF80430BDF80A6033
:10655000C3F383131C44D8E7F82D00200C3200202D
:106560000B4B0C4810B50022FF21C3F8182499608A
:106570001A605A60C3F8142483F8202402F01AF831
:10658000044610B9044802F031F9204610BD00BF9E
:10659000F82D0020341D0300440A030021B9114BDB
:1065A00003EBC0000068704730B40F4A0D4C121B5B
:1065B000D2080CD00D4D2B88834210D0002303E06D
:1065C00035F82310814205D001339A42F8D10020DA
:1065D00030BC704704EBC300006830BC70472046F5
:1065E000FAE700BF481D0300C01D0300C82C0020AF
:1065F000094B013903EBC00003290BD8DFE801F098
:1066000002080604022070474079704700797047FD
:106610000420704700207047481D03002DE9F04713
:10662000944C94E80C009A4284B000F0BB800023A4
:10663000C4F81834BFF34F8F6368A56803EA0501F7
:10664000CA1C04EB820614F8222050071AD52768CA
:10665000327802F00302012A44D0022A03F1020236
:1066600002D1738802EB931305EA0301D4F81804EE
:10667000CA1C04EB820628B99F4239D914F822209B
:106680005207E5D404EB81015A1CC96801912A40E4
:1066900004EB820201F00301D2680292022903F1A5
:1066A000020829D0012900F08180D4F810543DB1AE
:1066B0002B6828469B689847EB681D68002DF7D12A
:1066C0006D486E4B6E49C01AC008000440F00200CD
:1066D00000F0DCF860682368C01A18BF012004B01D
:1066E000BDE8F08732880233C2F383121344BBE75C
:1066F000676004B0BDE8F087BDF806306148C3F3B9
:1067000089194F46502FA8BF502767F38F1307F101
:106710000801ADF8063001F04FFF06460028C4D04E
:1067200025EA080A0AF1010A01F08EFF4FEA8A0AF7
:106730000023082201A9304601F0ACFF574572D969
:10674000BAF1000F7ED13A4608234F49304601F096
:10675000A1FF09F1030708EB9707D4F81834002BC1
:106760006CD1D4F810545DB1EB685A7931462846A3
:106770001AB12B681B689847EB681D68002DF3D190
:10678000304601F065FF04A8002300F80D3D01F03C
:106790007BFAD4F8183403B967609DF8030001F060
:1067A00099FA97E7002004B0BDE8F087BDF80430FF
:1067B0003448C3F38312062A28BF0622911C62F3D1
:1067C00089138900ADF8043001F0F6FE0646002872
:1067D0003FF46BAF01F038FF0023082201A93046D7
:1067E00001F058FFBDF8043013F4707F3FD04FF034
:1067F000000A4FF0080905EA080103314B4604EB93
:1068000081010422304601F045FFBDF804300AF151
:10681000010AC3F3831308F10107534509F1040981
:10682000B846E8D899E705EA0801033104EB81018D
:106830003A460823304601F02DFF8AE7304601F042
:1068400007FF47E705EA08010331A7EB0A0504EB58
:10685000810152463046EDB2082301F01BFF2A4663
:106860000AF108030849304601F014FF71E7474672
:1068700073E700BFF82D0020801D0300481D0300B2
:10688000500A0300341D0300042E00202DE9F043BC
:1068900083B002AB002203F8012DDFF8E090074639
:1068A00018468846D9F8085001F0EEF9D9F80820C2
:1068B000D9F80430D9F80060134401339B1B012B35
:1068C00057D809F21C440121204601F061FAFFF774
:1068D000DBFD0146204601F05BFA99E80A00D9F891
:1068E0000820134401335B1A012BECD901240A4020
:1068F000033244F004036FF3891302319DF807005B
:1069000049F82230C9F8001001F0E4F900211A48D2
:1069100001F016FA80F3100033192B4009EB8303C2
:1069200000043540033540EA1740D86019F8253097
:1069300067F3C50309F8253039F825306FF389135B
:1069400029F8253059F8252068F39F22134664F36F
:1069500001036FF3820349F8252009F8253099F8DF
:1069600020341BB1FFF75AFE0028FBD103B0BDE86D
:10697000F0833146BAE700BF14320020F82D002022
:106980002DE9F04782B002AB002403F8014D374CEB
:106990008046184692468946A56801F075F9A268B6
:1069A0006368276813440133DB1B022B5BD804F2B6
:1069B0001C460121304601F0EBF9FFF765FD014669
:1069C000304601F0E5F994E80A00A2681344013367
:1069D0005B1A022BEDD901260A40033246F004036C
:1069E00066F3891344F8223003319DF807002160D3
:1069F00001F070F9BB1C2B4004EB830300211C4801
:106A0000C3F80CA001F09CF980F31000BB192B40D7
:106A100004EB830300043D40033540EA1840D8608E
:106A200014F8253068F3C50304F8253034F8253010
:106A300066F3891324F8253054F8252069F39F2242
:106A4000134666F301036FF3820344F8252004F82C
:106A5000253094F820341BB1FFF7E0FD0028FBD16E
:106A600002B0BDE8F0873946B5E700BFF82D002039
:106A7000143200202DE9F04F85B004AD002405F854
:106A8000014D3C4C01938046284693468946A668B2
:106A900001F0FAF8A2686368276813440133DB1B2E
:106AA000032B65D804F21C450121284601F070F93A
:106AB000FFF7EAFC0146284601F06AF994E80A006B
:106AC000A268134401335B1A032BEDD901250A4058
:106AD00003324FF0020A45F004036AF3891344F8C5
:106AE000223004319DF80F00216001F0F3F807EB2C
:106AF0000A0EFA1C0EEA060E324004EB820204EB88
:106B00008E0E019B1C48CEF80CB00021D36001F022
:106B100017F980F310007A19324004EB8202000466
:106B20003E40033640EA1840D06014F8262068F34F
:106B3000C50204F8262034F826206AF3891224F8C6
:106B4000262054F8262069F39F22134665F301039B
:106B50006FF3820344F8262004F8263094F820349A
:106B60001BB1FFF75BFD0028FBD105B0BDE8F08F3E
:106B70003946ABE7F82D0020143200202DE9F04F04
:106B800089B008AD002405F8154D04934B4C129FB5
:106B900005979946139B06938046149B03922846BB
:106BA00092460793A6688B4601F06EF8A268636868
:106BB000276813440133DB1B062B7CD804F21C45E9
:106BC0000121284601F0E4F8FFF75EFC0146284663
:106BD00001F0DEF894E80A00A268134401335B1A5E
:106BE000062BEDD90A400125D31C45F0040E0522E1
:106BF00062F3891E44F823E007319DF80B000192EF
:106C0000216001F067F8B91CF81C07F1040C314051
:106C100030400CEA060C07F1050E0EEA060E04EBF6
:106C2000810104EB800004EB8C0CBB1D129AC1F8AF
:106C30000CA0334004EB8E0EC0F80C9004EB8303E1
:106C4000CCF80C20139ACEF80C200021149A1C4882
:106C5000DA6001F075F880F310007B19334004EB23
:106C6000830300043E40033640EA1840D86014F81D
:106C70002630019A68F3C50304F8263034F826302C
:106C800062F3891324F8263054F826206BF39F22F0
:106C9000134665F301036FF3820344F8262004F8DA
:106CA000263094F820341BB1FFF7B8FC0028FBD144
:106CB00009B0BDE8F08F394694E700BFF82D0020F9
:106CC0001432002030B4174DD5F8104400215CB1C7
:106CD000E3681A798A4204D116E0DB681A798A429D
:106CE00012D01B68002BF8D1C3681971D5F8103485
:106CF00093B1DA68C36812681A60D5F81034DB689B
:106D00001860084630BC704701310A29DFD14FF0C6
:106D1000FF31084630BC7047C5F81004C2681360E4
:106D2000EFE700BFF82D002038B5094BD3F8104429
:106D3000012583F820544CB1E3685D712368204637
:106D40005B689847E3681C68002CF5D138BD00BF2C
:106D5000F82D00202DE9F04784B01D460C9C00233F
:106D600094F80C802373EB8881460E461746002B5F
:106D70003BD1297A05290FD06B7A002B3DD1404BAE
:106D8000A88853F821A00021FFF708FC52460346CB
:106D90003C49204601F0A0F8062F0FD8DFE807F0A5
:106DA000484D535A04633900F168B06896E80C0006
:106DB000019100904946204601F08EF82B7A052B70
:106DC00005D06B7A5BB93049204601F085F8204642
:106DD00001F076F884F80C8004B0BDE8F0872B4A07
:106DE0002B49204601F078F8EDE7284A009229491E
:106DF000294A204601F070F8BBE7A888FFF7F8FBA6
:106E0000264B234953F82020204601F065F8297AC3
:106E1000B5E77069316996E80C000390B068F768CF
:106E200002918DE881004946204601F055F8C5E7FA
:106E30004946204601F050F8C0E7326849462046EE
:106E400001F04AF8BAE7494696E80C00204601F0FE
:106E500043F8B3E7B16896E80C0020460091494634
:106E600001F03AF8AAE7B068F768316996E80C00D3
:106E700002918DE881004946204601F02DF89DE7FA
:106E8000D40A0300C80A0300B4110300C00A0300B7
:106E9000D0110300A80A0300A00A0300680A030037
:106EA000082900D970472DE9F04F1D469046002370
:106EB0002A7B2B7385B0B8F80630039207460E463E
:106EC000002B6FD198F80810052911D098F80930D7
:106ED000002B6FD13E4BB8F8040053F8214000213D
:106EE000FFF75CFB224603463A49284600F0F4FFD0
:106EF000DFF800B1DFF800910024A6424946284699
:106F000039D93A5D013400F0E7FF082CF5D1324958
:106F1000DFF8E8B0DFF8E890284600F0DDFF002455
:106F20000CE017F804A0BAF17E0F2CD92E224946A6
:106F30002846013400F0D0FF082C08D0A642F0D833
:106F400059462846013400F0C7FF082CF6D198F8BE
:106F50000830052B02D098F80930EBB91F492846B4
:106F600000F0BAFF284600F0ABFF9DF80C302B7301
:106F700005B0BDE8F08F01345946284600F0ACFF5B
:106F8000082CBAD1C3E708F053FA5044524643786C
:106F900013F0970FCAD0CAE7114A1249284600F0E9
:106FA0009BFFDBE70E4A00920F49104A284600F08B
:106FB00093FF87E7B8F80400FFF71AFB0C4B094969
:106FC00053F82020284600F087FF98F8081081E742
:106FD000D40A0300C80A0300980A0300B41103008E
:106FE000C00A0300D0110300A80A0300A00A03008E
:106FF000680A0300940A03008C0A0300D00A030005
:107000009C0A0300434B1978002900F081802DE988
:10701000F04F8C4687B00024012503E00134E4B230
:10702000644560D23C4B27B21E6816F837E0AEF1DB
:10703000200305FA03F9394BCEF12001D3E90023EF
:1070400025FA01F149EA010905FA0EF808EA0200F9
:1070500009EA0301014306EBC70BDFD02F4922EAFF
:10706000080223EA09037046C1E9002302F0A4F9EB
:1070700016F837E0AEF1200205FA02F2019201990A
:10708000CEF12003C6B225FA03F3AEF12002194374
:1070900006FA02F30393224B0191D3E90023CDE9D1
:1070A000042305FA0EF30093CEF12001039B26FA88
:1070B00001F10B43039306FA0EF30293DDE9046733
:1070C000DDE9002316401F4032463B46DDE90267FA
:1070D000BB4208BFB24209D00E4B013493F800C046
:1070E000E4B264459ED307B0BDE8F08FDBF804300E
:1070F000002BF1D09BF80110A1F10101B1FA81F14F
:107100004909091AB1FA81F1490970469847E3E73C
:10711000704700BFB4320020F0320020E832002077
:10712000E03200202DE9F8430646204800F0FCFB41
:10713000D0B91F4F0123A6F1200103FA01F5C6F1D2
:107140002002D7E9000123FA02F2154303FA06F4FC
:1071500004EA000205EA0103134307D020EA04040D
:1071600021EA0505C7E90045BDE8F883304602F08D
:1071700023F9104ED6E9008998B148EA040849EA93
:107180000509D7E9002314431D43C6E90089C7E96F
:107190000045094B054819680022BDE8F84300F096
:1071A0006DBB28EA040829EA0509EAE7BC32002099
:1071B000E8320020E0320020B8320020042A01D852
:1071C000072070472DE9F04182B00F46054616466C
:1071D00001F08AFF002834D01C4C1D4A1D4B1E486C
:1071E0001E49256017707C1E00221E600023C0E926
:1071F0000023C1E90023E4B2EFB1DFF86C8000277F
:10720000032601E0FF2C16D023B205EBC30215F8CC
:10721000330093788DF80670424601A98DF804601A
:107220008DF8053001F06AFF013CE4B20028E9D096
:1072300002B0BDE8F0810A4A0A48002100F00CFBC8
:10724000F6E701F001FF0028C6D0F1E7F032002098
:10725000B4320020B8320020E0320020E8320020B2
:1072600005700200400B03002571020070B5084D47
:107270002B785BB1074E00243368012113F83400EA
:1072800002F01EF82B780134A342F5D8002070BD1F
:10729000B4320020F032002000B583B0029000919B
:1072A000019244F2010071466A4604F0DFFB03B02C
:1072B00000BD00BF59B10AB909207047531E1A40DA
:1072C000FAD1826001608380C260104670470E2050
:1072D000704700BF10B48468C26803468088121BE0
:1072E000904203D204205DF8044B7047DA681C68B2
:1072F00002400020A154DA680132DA605DF8044BE4
:10730000704700BF03468068DA6890420DD010B421
:1073100098689A881C6802400020A25C0A709A68EB
:1073200001329A605DF8044B70470520704700BF3A
:10733000F8B5204A204B0025C2F84051C2F844510C
:10734000C2F84851C2F84C51C2F80051C2F8045179
:107350001B6813B31949D2F804450A68A41A1A68BD
:1073600024F07F44A2422F4609D8197CDE69A41A72
:10737000154499B91EB133461A68A242F5D910498D
:10738000104A0B7812789A420DD00F490F4A41F8F3
:1073900023504FF48013C2F80031F8BD1F745A69AE
:1073A00098699047E6E7531CDBB2022B08BF002325
:1073B0000B70EAE700100140143400201034002064
:1073C0000D3400200C3400200434002000E100E0E3
:1073D0002DE9F04FB74AB84913780978994285B03A
:1073E00033D00133DBB2022B08BF0023B348137044
:1073F000B34A0768DFF8E08252F82320D8F800107B
:10740000BB18002423F07F43036025462046A64690
:10741000A9B10B68934200F27D81CC68C1F800E00D
:10742000D21A1844CB6934B13E1826F07F46CD619C
:107430008C604E600D46194601240029E9D1002CCC
:1074400040F0A5814FF0010B05E0DFF88C820025AC
:10745000D8F80010AB469B4B9B4FDFF8809243F06F
:10746000010300930E464FF0000A002D2DD0D5F8F1
:1074700004E0D5F808C02C46ED69904B93481B6892
:10748000AEEB030222F07F42824255D802EB0C039E
:107490002360002201206260A260E2612074002E5D
:1074A0006BD03068834261D9B64603E010689842D9
:1074B0004CD29646DEF81C201B1A002AF6D1236017
:1074C000E261CEF81C40002DD1D197F801C097F8A9
:1074D00000E0F44571D0734603EB43030EF1010065
:1074E000BA7807EBC3035FFA80FE7245187987F814
:1074F00000E004BF4FF0000E87F800E002289A6811
:107500004CD003283DD00128E3D1107C0028E0D1E5
:10751000D3F80CE0C2F804E0D3F810C0C2F808C0F9
:1075200014465A69E26099F800209B69A361002A19
:10753000A3D060608646A0E7A3EB0E0323F07F4351
:1075400063450AD2ACEB03032360A2E7C01A1060C4
:107550002360E261CEF81C40B5E7002301222360DE
:107560006360A360E36122743EB13068C8F80040F4
:10757000C31A3360E661264677E7C8F8004026461E
:1075800073E7002EA5D0002200E01E46F369327496
:10759000002BFAD1C8F800301E4696E74EB1B24231
:1075A000344603D1BDE09A4260D01C46E369002B0B
:1075B000F9D100231374F4458DD1BAF1000F02D133
:1075C0008E4200F09D80002E00F0C5803B4B404A6B
:1075D0001C68D2F80475DFF80881D6F800A098F886
:1075E00000103B1B23F07F43DD1CA9B93949354B03
:1075F0004FF48030C2F844030126C2F804034FF46C
:107600000030C1F8800143F00103086016604FF4B8
:107610003C60984788F80060AA452CBF04EB0A0339
:1076200063192B4923F07F43C1F84035D1F8042575
:10763000D21BDB1B22F07F4223F07F4303329A42AE
:107640000ED9204BD1F80425C1F8402543F00103A1
:107650004FF43C6098471F4B4FF40032C3F80021B1
:10766000002389F8003005B0BDE8F08FA24239D080
:10767000D2F81CE01368C4F81CE0BEF1000F11D072
:107680003046DEF800402344CEF80030864209D070
:10769000002397F800E097F801C0137406464FF0F6
:1076A000010A88E7002397F800E097F801C01374F7
:1076B00081E700BF0C3400200D340020103400207E
:1076C00004340020500B0300F4320020FEFF7F0042
:1076D0000010014000E100E01434002000340020DC
:1076E000013400201346F069C8F80000D8B1D3F87F
:1076F0001CE01B68C4F81CE0BEF1000FC1D1C5E757
:10770000BBF1000F7FF45FAF002389F8003005B0B4
:10771000BDE8F08F002C3DD19B1A0B604FF0010BA0
:1077200099E63346DFE701931C4BDFF87CC00392F8
:107730004FF0010E0291C3F808E0009BCCF8000066
:1077400089F800E04FF43C609847D8F80000019BAE
:107750000299039ACBE7114D114A124C4FF4803332
:107760004FF400310127C2F880103C43C5F848337C
:107770004FF43C60C5F808336F60A0470A4BAF6018
:107780004FF43C601E60A047084B1E7068E7C8F8C5
:10779000001057E6C8F80010BEE700BF0010014017
:1077A00000E100E0500B0300103400200134002001
:1077B0002DE9F8431F4D204E204FDFF898804FF4FD
:1077C00080334FF400324FF001090024C6F88020C6
:1077D00047EA0907C5F848334FF43C60C5F8083359
:1077E000C5F80490B847C5F808904FF43C60C8F855
:1077F0000040B847124B13481349144A1C70144BED
:1078000004600C7014704FF48011C0220B2098702B
:107810001C705C70C6F8801186F814233160C5F8BE
:10782000084586F81123D5F80435C8F800302046FD
:10783000BDE8F8830010014000E100E0500B0300B8
:1078400001340020143400200C3400200D340020BA
:10785000F432002010340020074B9B780BB908202D
:1078600070473AB130B10368187C0028F7D15974D9
:107870005A61704707207047F43200202DE9F04329
:10788000264CA37883B01BB9082003B0BDE8F08371
:107890000028F9D0042903D8072003B0BDE8F083FD
:1078A0004369002BF0D0064602A8737C0025012B0B
:1078B00000F8015D0CBF8946A94690460F4600F0CE
:1078C000E3F96378A07821785A1CD2B2904208BFBD
:1078D0002A4691421BD003EB430304EBC303012070
:1078E0000F4918719E60D1F804159DF80700D96002
:1078F0001F61C3F81490C3F81880627000F0EAF9B1
:10790000084B4FF480122846C3F80021BDE79DF8CC
:10791000070000F0DFF90420B7E700BFF4320020D1
:107920000010014000E100E070B51B4CA37882B06C
:1079300013B9082002B070BD0028FAD04369002BAB
:10794000F7D0064602A8002500F8015D357400F066
:107950009BF96278A0782178531CDBB2984208BF6B
:107960002B46994212D002EB420204EBC2020221E2
:107970009DF8070096601171637000F0ABF9074B3A
:107980004FF480122846C3F80021D3E79DF8070082
:1079900000F0A0F90420CDE7F432002000E100E07F
:1079A00030B50478012C83B027D017D3022C13D123
:1079B000384B394D1A78C168AA5C01918DF80040A6
:1079C000002A37D103F10C000122344902F02EFDC8
:1079D000334B68461B68984703B030BD3149324885
:1079E000FFF790FC00282BD002A8032300F8083DE5
:1079F0002B4B1B68984703B030BD43682B4D19785B
:107A00002846FFF767FC30BBAA68EB689A4206D0AD
:107A100002AB234A03F8080D126818469047A9687C
:107A2000EB68AA885B1A9A421DD2214B01221A7078
:107A300003B030BD181D0122184902F0A1FFC7E7AD
:107A40001448154A0378D35CF3B9012215490C3068
:107A500002F07CFCC0E7124B01908DF800401B68DF
:107A600068469847DBE70B480B4A0378D35C2BB991
:107A700001220A490C3002F0D9FCADE70122074986
:107A8000043002F07DFFA7E701220649043002F02E
:107A90001DFFA1E7A02A0020343F00204034002031
:107AA0001834002044340020303400201C340020DE
:107AB0002C3400202DE9F045324C89B02260002999
:107AC00055D00C4680468A882F4809689A46FFF7A9
:107AD000F1FB10B109B0BDE8F085A289A1682B487F
:107AE000FFF7E8FB0028F5D1294D98F810E0294E62
:107AF000D8F814700FCD6C460FC495E80F0098F8B5
:107B000011501EF1000E18BF4FF0010E002D84E839
:107B10000F0014BF0E220022D8F80040D8F804301D
:107B2000D8F808508DF8152006976946D8F80C70DB
:107B3000194A8DF81CA030468DF814E00297039581
:107B40008DE8180001F0E0F90028C3D1D8F8003022
:107B5000124A01331070BDD0114A3378D35C53B947
:107B600006F10C0001220F4902F060FCB2E7072089
:107B700009B0BDE8F085301D01220A4902F000FF7E
:107B8000A8E700BF183400201C3400203034002047
:107B9000580B0300A02A0020A17902002C340020F9
:107BA000343F00204034002070B5134C0146134888
:107BB0002678FFF7A7FB05460EB9284670BD10488A
:107BC000104A0378D35C0022227063B90C30012282
:107BD0000D4902F02BFC0028EFD00C4ACE21FFF714
:107BE0005BFB284670BD04300122074902F0C8FE45
:107BF0000028E2D0F1E700BF2C3400201C34002024
:107C0000A02A0020343F002040340020780B0300DD
:107C100070B501461648FFF75DFB044608B12046E3
:107C200070BD144D144E2B78F35CABB905F10C000C
:107C300002F0F0FB0028F2D110490D48FFF762FB7B
:107C40000028ECD12B780D49F35C012253B90C4884
:107C5000BDE8704002F07ABB281D02F083FE0028C8
:107C6000DDD1E9E70748BDE8704002F02FBE00BF54
:107C700030340020A02A0020343F0020443400206B
:107C8000AC2A0020A42A002070B4EFF3108472B64E
:107C90000D4B9A68AAB90D490D4E01259D60D1F88A
:107CA000805035401D60C1F88060D1F884505D601F
:107CB0004FF0FF33C1F88430027004B962B670BC73
:107CC000704701230370F8E7283F002000E100E03F
:107CD000FC06FFBD094B9A6872B168B910B4EFF3A6
:107CE000108272B606491C680C605C684C60986033
:107CF00002B962B65DF8044B704700BF283F002010
:107D000000E100E001F01F024B09012100EB8300BC
:107D1000914000F021B800BF01F01F020123490982
:107D2000934000EB8100D94300F024B84B0901F0E7
:107D30001F0150F82300C84000F00100704700BF49
:107D400000B550E8002F0B4640E8003E9EF0000FC3
:107D5000F7D110465DF804FB00B550E8003F43EA58
:107D6000010240E8002E9EF0000FF6D110465DF8AB
:107D700004FB00BF00B550E8003F03EA010240E801
:107D8000002E9EF0000FF6D110465DF804FB00BFF8
:107D900000B550E8003F03EB010240E8002E9EF0E2
:107DA000000FF6D110465DF804FB00BF00B550E8A7
:107DB000003FA3EB010240E8002E9EF0000FF6D139
:107DC00010465DF804FB00BF00B5012350E8002F0A
:107DD00042EA030E40E800E191F0000FF6D1704650
:107DE0005DF804FB00B5002350E800EF0EEA030243
:107DF00040E8002191F0000FF6D170465DF804FBD9
:107E0000B8B130B4416882680468521AD2B2531EC5
:107E10002160DBB242B101680A685C1E551C0D602E
:107E20001370E3B2FF2BF6D103680020187130BC49
:107E300070470E20704700BFF0B583B002AB00253D
:107E400003F8015D04461846FFF71EFF23686168CA
:107E50001A688A4210D9511E19602168A3680E68F9
:107E600012F8015C0A79278AE0689B1BDBB29A4210
:107E700007FB050538BF0B719DF80700FFF72AFFC8
:107E8000284603B0F0BD00BF30B583B002AB00227E
:107E900003F8012D054618460C46FFF7F5FE2A6843
:107EA0001368591C1160E9682A8A641AB4FBF2F459
:107EB0001C709DF80700FFF70DFF03B030BD00BF39
:107EC000826802B9704710B50446436901680069C9
:107ED00098470023A36010BD0EB400B582B003998B
:107EE00029B102AA04AB42F8043D00F0A3F802B0A5
:107EF0005DF804EB03B070472DE9F04F164683B0F0
:107F0000B1428A4605469846DDF830B00D9AC0F079
:107F10008D800B460127B3FBF6F39E4207F1010764
:107F2000F9D9474538BF474612F00103009302D103
:107F3000BBF1000F59D1A868012403E008F1FF3814
:107F400006FB04F4B8F1010FF8D8BAFBF4F296423C
:107F5000F6D9DFF8DC904FF00D0810E02968421CDC
:107F6000AA600B54AA686B689A4202D32846FFF7AE
:107F7000A7FFB4FBF6F4C4B1BAFBF4F2A86819F891
:107F800002300A2B04FB12AAE8D12968421CAA601D
:107F900001F80080A8686A689042DFD32846019300
:107FA000FFF78EFFA868019BD8E7009BB3B1BBF138
:107FB000000F13D0BB4588BF20240FD9AB682A68B7
:107FC000591CA960D454AA686B689A420BF1FF3B14
:107FD00007D2BBF1000F01D0BB45EFD103B0BDE824
:107FE000F08F2846FFF76CFFF3E7930718D420249F
:107FF000BB45A0D9A8682A68431CAB601454A86884
:108000006A6890420BF1FF3B05D2BBF1000F93D0A1
:10801000BB45F0D190E72846FFF752FFA868F4E788
:10802000B8F1000F0CBF30242024E1E7012778E7E6
:10803000B40B0300002900F0B9822DE9F04FDFF8FE
:1080400070A50D7885B0064691460C460134002D8A
:1080500000F0A080252D40F0A2814FF000082146BD
:1080600014F8012B2D2A00F09481302A00F094811D
:108070002B2A00F086812A2A00F0A181A2F1300586
:10808000EBB2092B98BF013102D9CAE1A3F1300547
:108090000C4611F8012BA2F1300005EB85030928ED
:1080A00002EB4303F2D92E2A00F09581002701E06C
:1080B00014F8012F02F0FB03682BF9D0253A532A5C
:1080C00063D8DFE812F040016200620062006200E3
:1080D0006200620062006200620062006200620090
:1080E0006200620062006200620062006200620080
:1080F0006200620062006200620062006200620070
:10810000620062006200620062006200620062005F
:10811000620062006200620062006200620062004F
:108120006200620062006200620062004F01620051
:10813000620062006200620062006200620062002F
:1081400062002901D1006200620062006200D10079
:10815000620062006200620062006200AC006200C5
:1081600062006E0062005400620062004F01D9F8A4
:1081700000301A1DC9F800201968CDF804803B466C
:1081800000950A223046FFF7B7FE01342578002D0E
:108190007FF45CAF337B002B40F0BD8105B0BDE8C0
:1081A000F08FD9F800301A1DC9F8002018F0010F1F
:1081B0001F6840F03981002F00F0D881384607F061
:1081C00097F98046454515D9A5B14FF0200B00E041
:1081D00085B1B2683368511CB16003F802B0B2686F
:1081E00073689A4205F1FF3502D33046FFF768FE07
:1081F0004545EDD1013F17F8015F002DC5D00A2D8F
:10820000B36800F078813268591CB160D554B26807
:1082100073689A42EFD33046FFF752FEEBE7D9F886
:108220000020131DC9F80030B36831681568581C68
:108230003022B060CA54B3687268934280F02781DC
:108240003268581C7821B060D154B26873689A4281
:1082500080F02281002208230192294600931022F7
:108260003046FFF749FE90E7D9F800301A1DC9F8EB
:108270000020D3F800B08BEAEB73A3EBEB73092B70
:108280004FF0010108DD8AFB0302DB17C3EBA203F9
:10829000092B01F10101F6DCB94238BF39462DB393
:1082A000BBF1000F02DB18F0040F00D0013D18F005
:1082B000020F00D0D7B118F0010F17D1002D00F038
:1082C0004981A94238BF202310D2B268501CB06047
:1082D00030688354B2687068824205F1FF3580F0DF
:1082E0003B81002D00F03681A942EED1BBF1000F99
:1082F000C0F23E8118F0040F40F0138108F0030330
:10830000022B00F0CD808DE820013B4659460A2221
:108310003046FFF7F1FD38E7D9F800301A1DC9F8EB
:1083200000201D78B3680A2D00F030813268591C96
:10833000B160D554B26873689A42FFF426AF3046F4
:10834000FFF7BEFD21E7B3683268581C2521B060F5
:10835000D154B26873689A42FFF417AF3046FFF702
:10836000AFFD12E7D9F800301A1DC9F800201968CE
:10837000CDF804803B46009510223046FFF7BCFD47
:1083800003E7214614F8012B2D2A48F004087FF456
:108390006CAE48F0010862E648F002085FE60A2D7C
:1083A000B3682FD03268591CB160D554B268736875
:1083B0009A42FFF4EBAE3046FFF782FDE6E6D9F8CD
:1083C00000301A1DC9F800204A781D682E2A01F1D4
:1083D00001047FF46BAE6278A2F13003092B04F143
:1083E00001044FF000073FF665AE07EB870702EB8D
:1083F000470714F8012FA2F13003092BA7F130072A
:10840000F3D957E6591C3268B1604FF00D01D154D1
:10841000B36872689342C5D33046FFF751FDB36825
:10842000C0E70C4600253EE6B846A8EB070B18F857
:10843000013B9BB10A2BB1684CD03268481CB0603C
:108440005354B26873689A42EFD33046FFF738FD51
:10845000A8EB070B18F8013B002BEBD15D457FF62D
:1084600094AE202702E0002D3FF48FAEB26833684F
:10847000511CB1609F54B26873689A4205F1FF3590
:1084800002D33046FFF71CFD5D45ECD17DE630465A
:10849000FFF716FDB368D3E63046FFF711FDD9E6C6
:1084A000002F7FF430AF002D5ED0A94238BF3023BB
:1084B000BFF429AFB268501CB06030688354B26812
:1084C0007068824205F1FF353CD2002D4CD0A942A4
:1084D000F0D118E7481C3268B0604FF00D005054DE
:1084E000B16872689142A8D330460293FFF7E8FC66
:1084F000B168029BA1E7591C3268B1604FF00D01D1
:10850000D154B36872689342FFF47DAE3046FFF7F2
:10851000D7FCB36877E6304605B0BDE8F04FFFF70B
:10852000CFBCB268531CB36033682B209854B26838
:1085300073689A42FFF4E2AE30460291FFF7C0FC46
:108540000299DBE6304603930291FFF7B9FC039BE7
:108550000299BAE70025C9E6304603930291FFF776
:10856000AFFC039B0299BCE60025CCE6B84629E6A1
:10857000B268531CB36033682D209854B268736896
:108580009A42CBF1000BFFF4B9AED5E7591C326823
:10859000B1604FF00D01D154B36872689342FFF49B
:1085A000C5AE3046FFF78CFCB368BFE6704700BF2E
:1085B00067666666FFF724BC2DE9F041B0F81080CD
:1085C000CF1CA8F1040847440646B7FBF8F7FFF7AD
:1085D00033FC80B3FFB200250123013F0446A0F81D
:1085E000068006600571437128D0804609E06379F2
:1085F000AF4203F101036371C8F8000006608046D2
:108600001CD03046FFF718FC01350028EFD1667901
:10861000721E16D02346013082421B68FBD81F68A9
:108620004EB1214600250C6801353846FFF72CFC79
:10863000AE422146F7D10020BDE8F0812046BDE8DA
:10864000F0812768EDE700BF04300121FFF7A0BBF0
:10865000F8B5012104460430FFF7A8FBC0B200B111
:10866000F8BD6679721E12D02346013082421B6823
:10867000FBD81F68002EF3D0214600240D6801347A
:108680003846FFF701FCA6422946F7D1F8BD276816
:10869000F2E700BF2DE9F843C78890F805E01546DA
:1086A00007FB0EFEEC18AEF1040E1A1DA645884617
:1086B000B2FBF7F638BFAEEB030507FB1621044605
:1086C00016B1013E2468FCD17E1AAE4228BF2E4668
:1086D0009DB14FF00009081DAD1B08EB09012044B6
:1086E000324606F0C5FEAF42B14424683E464FF024
:1086F000000128BF2E46002DEDD1BDE8F88300BF54
:108700002DE9F843C78890F805E0154607FB0EFEF3
:10871000EC18AEF1040E1A1DA6458846B2FBF7F61A
:1087200038BFAEEB030507FB1621044616B1013E28
:108730002468FCD17E1AAE4228BF2E469DB14FF070
:10874000000904312144AD1B324608EB090006F054
:108750008FFEAF42B14424683E464FF0000128BF6F
:108760002E46002DEDD1BDE8F88300BF41DF7047F4
:10877000064A074B10B5002414701C60BFF35F8FCE
:108780000449054800F040F8204610BD5034002050
:1087900054340020C40B03004834002000B583B0DB
:1087A00002A8002300F8013DFFF76EFAF1EE103A3F
:1087B00023F09F03E1EE103ABFF35F8F0A4B402294
:1087C000C3F884219DF80700FFF784FA06F048FCFF
:1087D00028B920BF40BF20BF03B05DF804FBFFF7FE
:1087E000C5FF03B05DF804FB00E100E082680023F0
:1087F000936082681361826853618268D360826883
:10880000536082681360704701600B6843604A6878
:10881000934204BF00234360704700BF436843B1E5
:10882000026891680B4443605268934204BF00237E
:108830004360704730B4184DA5F59472AB1ADB1045
:1088400003EBD3735B1002EBC30152F83330984251
:1088500028BF0C4605D311E052F8333098420CD2B1
:1088600021468B1ADB1003EBD3735B10914202EBB2
:10887000C304F1D8094830BC70470D46984204D96A
:1088800004F10802AA42D9D3F4E76068034B002838
:1088900008BF1846EFE700BF180D0300DC0B03000C
:1088A000F0B585B0057804790D4A0E4B4779866896
:1088B0008DF800508DF80440C56804694069039044
:1088C00053F821308DF805708DF806608DF807504B
:1088D000029452F821106846984705B0F0BD00BFD9
:1088E00058340020603400202DE9F04F804607788E
:1088F000574C584844F827308B46497B40F827208E
:1089000081B0914669B9544AB9F1000F3B465946C6
:1089100008F1040008BF002201B0BDE8F04F01F0EB
:108920003FB9DBF800204D4DDFF834A14FF0A043F4
:1089300002F5E07240F20C6143F82210DBF80420EB
:1089400002F5E072012643F82210DBF800101F291F
:1089500084BF01F01F0103F5407301228A40C3F870
:108960000825DBF804301F2B8ABF3D4A4FF0A04298
:1089700003F01F0306FA03F3C2F80835DBF80030F2
:108980004FF0A04203F5E07340F20D6142F823106E
:10899000DBF8043003F5E073354342F823104FF45D
:1089A0008070A8470024DBF804201F2A8ABF5346A2
:1089B0004FF0A04302F01F01D3F8103598BF1146C5
:1089C000CB40DB0741D4DBF800301F2B8ABF524677
:1089D0004FF0A04203F01F0306FA03F3C2F80C3570
:1089E0004FF48070A847DBF800301F2B86BF03F0E0
:1089F0001F0352464FF0A04206FA03F3C2F80835AF
:108A000001344FF48070A847092CCCD1DBF8042046
:108A10001F2A8ABF12494FF0A04102F01F02012312
:108A200003FA02F2C1F80C254FF48070A847DBF876
:108A300004201F2A86BF02F01F0209494FF0A041FF
:108A400001239340C1F808355DE7002CE0D15AE7D7
:108A50005834002060340020A18802001011030067
:108A60000003005010B44FF080414FF080520020BE
:108A7000C1F80C015E4BC1F81001C1F83805D2F8FD
:108A80000414C3F82015D2F80814C3F82415D2F83A
:108A90000C14C3F82815D2F81014C3F82C15D2F80A
:108AA0001414C3F83015D2F81814C3F83415D2F8DA
:108AB0001C14C3F84015D2F82014C3F84415D2F89A
:108AC0002414C3F84815D2F82814C3F84C15D2F86A
:108AD0002C14C3F85015D2F83014C3F85415D2F83A
:108AE0003414C3F86015D2F83814C3F86415D2F8FA
:108AF0003C04C3F86805D2F840043E49C3F86C054D
:108B00000968D2F84424C3F87025082924D04FF00E
:108B10008043D3F80024D20744BF6FF00102C3F8AA
:108B20000024354AD2F8883043F47003C2F8883004
:108B3000BFF34F8FBFF36F8F4FF01023D3F8002296
:108B4000002A23DBD3F80432002B1FDB2B4B2C4AEB
:108B50001A605DF8044B70472A4B1B68002BD6D176
:108B600029482A4A2A4C04602A492B4BFB20C2F888
:108B700018050A681B68294822F00F0203F00F034A
:108B800013434FF400720B600260C0E7244B0122D4
:108B9000C3F80425D3F80024002AFBD04FF010239B
:108BA00012221F49C3F80022D1F80034002BFBD059
:108BB0004FF0102212211A4BC2F80412D3F80024ED
:108BC000002AFBD000221649C3F80425D1F800344E
:108BD000002BFBD0BFF34F8F0749124BCA6802F43A
:108BE000E0621343CB60BFF34F8F00BFFDE700BFD0
:108BF00000C000403001001000ED00E0B42A002069
:108C00000090D003340100108C56004000F000406A
:108C100048810300E40E00405802001040960240D4
:108C200000E001400400FA05074B1B5C1F2B8ABFC4
:108C3000064A4FF0A04203F01F03D2F80405D840C3
:108C4000C04300F0010070471C11030000030050F6
:108C5000074B1B5C1F2B86BF03F01F0305494FF01A
:108C6000A041012202FA03F3C1F80C35704700BF9E
:108C70001C11030000030050074B1B5C1F2B86BF19
:108C800003F01F0305494FF0A041012202FA03F34C
:108C9000C1F80835704700BF1C11030000030050E5
:108CA0004FF0A0434FF000514FF08042C3F8081539
:108CB000C3F80825704700BF4FF0A0434FF00051A4
:108CC0004FF08042C3F80C15C3F80C25704700BF65
:108CD0000A4B195C1F298ABF09484FF0A04001F0D8
:108CE0001F01D0F8043501228A4022EA0301134013
:108CF000C0F80815C0F80C35704700BF1C11030000
:108D000000030050074B1B5C1F2B8ABF064A4FF025
:108D1000A04203F01F03D2F81005D840C04300F072
:108D20000100704718110300000300500F2805D000
:108D300010280CBF01204FF0FF3070470020704713
:108D4000014B185C704700BF18110300C10709D41C
:108D5000830722D54FF0A0430C22C3F83C27C3F869
:108D6000402770474FF0A043032210B44FF08041DA
:108D7000C3F874274FF00054C3F878278207C3F86C
:108D80000845C3F8081506D54FF0A0430C22C3F8D8
:108D90003C27C3F840275DF8044B704710B568B115
:108DA00001280AD10C4C2369A07033B10CCB0120EF
:108DB000226198472369002BF8D110BD064CA368A7
:108DC00001226270002BF8D00CCB0020A2609847E3
:108DD000A368002BF8D110BD6834002068B910B525
:108DE000064CA3680122627033B10CCB0020A26054
:108DF0009847A368002BF8D110BD70476834002055
:108E000030B5012883B01CD015D3032811D100F050
:108E1000CDF802A800231F4C00F8013DFEF734FFF7
:108E2000E368013BE360E56865B39DF80700FEF782
:108E300051FF03B030BD184B0122C3F8802003B0AE
:108E400030BD02A80023134C00F8013DFEF71CFFC3
:108E5000237853B1E3689DF8070001330122E360F2
:108E6000A270FEF737FF03B030BD0C486360A3600B
:108E70002361E36000F08CF806F0F2F830B10123D2
:108E80002370E7E700F0A4F8A570CEE700F08EF8B5
:108E9000F5E700BF6834002000E100E09D8D02008E
:108EA00070B50A4A0A4B067845688468C06853F86A
:108EB000213052F8211084B003908DF800600195A4
:108EC0008DF808406846984704B070BD7C34002097
:108ED0008434002070B50A4A0A4B067845688468D5
:108EE000C06853F8213052F8211084B003908DF8F7
:108EF000006001958DF808406846984704B070BD41
:108F00007C340020843400202DE9F043DFF87480A5
:108F100006784B7F08F806300D46074694460FCD7D
:108F200089B06C460FC495E80F003D78DFF8589083
:108F3000DFF858E018F8055049F826C084E80F001B
:108F40004EF82600049665B1BCF1000F0B4A694645
:108F500007F1040008BF002201F0AAFB09B0BDE838
:108F6000F083BCF1000F064A694607F10C0008BF08
:108F7000002201F0FDF809B0BDE8F083A18E0200E7
:108F8000D58E0200343F0020843400207C34002041
:108F9000054A13790BB18520704701211060537188
:108FA00018461171704700BF8C340020074B1A68B7
:108FB000D20704D4C021012283F800131A604FF0B5
:108FC00080430122C3F81825704700BF00E100E08C
:108FD000044B01221A604FF08042D2F81834DB03B0
:108FE000FBD470470C00004010B5144B1A6882B0D7
:108FF00062B10021124A19601B68507900934FF04A
:1090000080410123009CC1F8083390B10D4B1A68D0
:109010006AB100221A601B6801934FF0804202215E
:10902000074B0198C2F808131B680120984702B04B
:1090300010BD116853718847E8E700BF0001004088
:109040008C3400200401004070B5234C94F86A5021
:1090500082B015B1082002B070BD4FF0FF33294631
:10906000FF26062204F1640023636363A363E363C2
:1090700023646364A364E36423656365A365E365B4
:1090800023606360A360E36023616361A361E361C4
:10909000236284F860306362A36284F86230E36222
:1090A00084F8633084F8616006F0EDF90B4A0C4BEC
:1090B0000C491D60C026402082F8066310601B68C2
:1090C000019301984FF000430122284684F86A205A
:1090D000C1F8043302B070BD9434002000E100E018
:1090E0007C61004000600040034B93F86A00003050
:1090F00018BF0120704700BF94340020F0B56D4CBC
:10910000231893F93050002D01DB0820F0BD91F8B1
:1091100002E0CEF3400EBEF1000F50D025680135BD
:1091200000F0C2800125082654F8253001334CD0C8
:109130006B1C54F82370013748D0AB1CB3423CD2AF
:1091400054F82370013741D0EB1CB34235D254F8A8
:10915000237001373AD02B1DB3422ED254F823701E
:10916000013733D06B1DB34227D254F82370013737
:109170002CD0AB1DB34220D254F82370013725D038
:10918000EB1DB34219D254F8237001371ED005F1FC
:109190000803B34211D254F82370013716D005F1F9
:1091A0000903B34209D254F8237001370ED00A35AF
:1091B000B54202D2E36A013374D00420F0BD256ABF
:1091C00001353AD009250C26AEE72B4626185DB2AC
:1091D00044F8232086F83050BEF1000F33D08B784E
:1091E0005A071CD4DE074ED51F2887BF324B00F02C
:1091F0001F0202464FF0A04303EB8203D3F800277F
:1092000022F00202C3F800272C4EC20800F0070E1D
:10921000B75C012303FA0EF33B43B3548B7813F08E
:10922000020314D1083D2C44097894F8602042EAE6
:10923000811284F860201846F0BD082683F830605B
:10924000354622623346234483F85800C7E7AD0011
:1092500005F1804505F5C0450A78D5F8101521F4CB
:109260004F3121F44071C5F8101503021204D5F8EE
:10927000101502F4403203F47C5313430B43C5F83A
:1092800010350020F0BD1F284A7887BF0A4E00F035
:109290001F0303464FF0A04603F5E073920046F823
:1092A0002320B1E70B2391E70025226083F830509B
:1092B00095E700BF9434002000030050F8340020EC
:1092C000F0B43A4D2E1882B096F93030072B20DDDD
:1092D0002B4493F858309B09032B45D0012B14BF26
:1092E0004FF440314FF400311F284DD900F01F00DA
:1092F0002F4B03EB8000D0F8002722F44032C0F857
:109300000027D0F800370B43C0F8003702B0F0BC9C
:109310007047DAB2072AF9D8980000F1804000F5CA
:10932000C04003F140029200D0F8104592B202F121
:109330008042002744F0010402F5C042C0F8104505
:109340000197019817600029E0D096F9302055F870
:109350002220002ADAD00122164902FA03F3C1F8CA
:10936000043302B0F0BC70471F2810D9104BD3F85B
:10937000103500F01F00C340DB0748BF4FF44031F9
:10938000B6D44FF40031B3E74FF0A043B1E74FF04C
:10939000A0421346D2F81025C24012F0010F14BFAC
:1093A0004FF440314FF40031A3E700BF9434002064
:1093B00000030050006000401F288ABF054B4FF09B
:1093C000A04300F01F00D3F8103523FA00F000F09E
:1093D00001007047000300502DE9F04788B00023DA
:1093E000CB4A039302931168012900F0A8821E461C
:1093F000C84B1A68012A00F09482C74B1A68012AE8
:1094000000F08182C54B1A68012A00F06E82C44BBD
:109410001A68012A00F05B82C24B1A68012A00F028
:109420004882C14B1A68012A00F03582BF4B1A6886
:10943000012A00F02282BE4B1A68012A00F00C8239
:1094400016F0FF0F1AD0BB4F01250024A30003F133
:1094500080432E4203F5C0434FEA45050BD0D3F8B5
:10946000100557F82420D3F81015C0F30520C1F3D8
:10947000014102B190470134082CE7D1002E02DBF4
:1094800008B0BDE8F0870DF1100800224FF0FF335F
:10949000A84CA94FC8F8042004920693079301260C
:1094A00094F960305A1C21D05FFA83FE2EF0C00080
:1094B00008AB4FEAD00903EB090C0EF007031CF8C8
:1094C000082C06FA03F31A4040F0388194F9611031
:1094D000481C00F06A8215460DE0022A06D10329D5
:1094E00000F06082002D00F03682A84794F96110E8
:1094F0004A1C51D00025CBB223F0C00008AA4FEA85
:10950000D00C02EB0C0E03F007011EF8082C06FA33
:1095100001F912EA090F4CD194F96210481C11D0DC
:10952000CBB223F0C00008AA4FEAD00C02EB0C0E1D
:1095300003F007011EF8082C06FA01F912EA090FD8
:1095400040F0AD8094F963305A1C0FD0DBB223F0A9
:10955000C00008AA4FEAD00C02EB0C0E03F0070281
:109560001EF8081C06FA02F211425AD1002D87D0CB
:109570004FF0A0430299D3F81035D7F8102599423F
:1095800003D1039991423FF47BAF0498059902936C
:1095900003920690079183E794F962104B1C01D067
:1095A0000025BDE794F963305D1C3FF469AF0025E9
:1095B000CCE72218990992F9302054F82220002A89
:1095C00000F02381032900F023811F2800F20C8181
:1095D00084464FF0A04303EB8C031EF818CCD3F85D
:1095E00000E71CEA090FCEF3014E40F0F380BEF114
:1095F000030F91D103290FD14FF4003ED3F800C7D8
:109600002CF4403CC3F800C7D3F800C701354EEA3C
:109610000C0EEDB2C3F800E7002A3FF47DAF90478F
:109620007AE704EB0009990999F9309054F82990E8
:10963000B9F1000F00F0FD80032900F0FD801F2824
:109640008BBFBC464FF0A04C03F01F0303460CEB4E
:1096500083031EF818CCD3F800E71CEA020FCEF300
:10966000014E40F0A680BEF1030F7FF47FAF0329C7
:1096700040F0A6804FF40032D3F800E72EF4403ECD
:10968000C3F800E7D3F800E7013542EA0E02EDB275
:10969000C3F80027B9F1000F40F0968068E7221860
:1096A000990992F9302054F82220002A00F0B7805E
:1096B000032900F0B7801F2800F2A38084464FF0F2
:1096C000A04303EB8C031EF818CCD3F800E71CEA88
:1096D000090FCEF3014E40F08B80BEF1030F7FF4F3
:1096E00031AF03290FD14FF4003ED3F800C72CF45B
:1096F000403CC3F800C7D3F800C701354EEA0C0E52
:10970000EDB2C3F800E7002A3FF41CAF904719E719
:109710000061004004610040086100400C610040AD
:109720001061004014610040186100401C6100405D
:109730007C610040943400200003005022184FEA5E
:109740009E1192F9302054F82250002D7BD003292D
:109750007CD01F283AD802464FF0A04E0EEB820E66
:109760001CF8189CDEF8002719EA0309C2F301422D
:109770007FF4B3AE032A7FF4B9AE03297FF4B2AE0F
:109780004FF40032DEF8003723F44033CEF80037D0
:10979000DEF800371343CEF80037002D00F0ED80DF
:1097A0000321A84794F961104B1C00F0EB800125C0
:1097B000A1E6BEF1020F7FF4D9AE032900F0EF80DD
:1097C000B9F1000F3FF4D2AEC847CFE60EF01F024A
:1097D000BE46C3E7BEF1020F7FF49EAE03297FF4BD
:1097E0001BAF4FF4403E09E703F01F0C3B46F2E687
:1097F000BEF1020F7FF4A6AE032984D14FF4403EA0
:1098000073E703F01F0C3B465BE703297FF484AE4C
:1098100018F80CA04AEA090A08F80CA0D5E60329B2
:109820007FF490AE18F80CA04AEA090A08F80CA0D8
:1098300041E703297FF49AAE18F80CA04AEA020A1D
:1098400008F80CA0FBE6032940F0858018F80920F1
:109850001A4308F809207CE700221A601B6801936C
:109860004FF0A042019BD2F81025564B0292D3F83C
:109870001035039346F00046E2E5534AD2F804233C
:1098800011067FF5D8AD00221A601B680093009B7B
:1098900046F08006CFE54C4AD2F8042350067FF507
:1098A000C5AD00221A601B680093009B46F040067D
:1098B000BCE5454AD2F8042394067FF5B2AD0022F8
:1098C0001A601B680093009B46F02006A9E53E4AFB
:1098D000D2F80423D5067FF59FAD00221A601B68DD
:1098E0000093009B46F0100696E5374AD2F8042311
:1098F00017077FF58CAD00221A601B680093009B50
:1099000046F0080683E5304AD2F8042352077FF573
:1099100079AD00221A601B680093009B46F0040694
:1099200070E5294AD2F8042391077FF566AD00223D
:109930001A601B680093009B46F002065DE5224911
:10994000D1F8046316F001063FF452AD13601368BA
:109950000093009B4CE594F961104B1C7FF4CBAD58
:1099600094F96210481C7FF4DBAD94F963305A1C03
:109970007FF4ECAD08B0BDE8F08794F961104D1CA0
:109980007FF415AF94F96210481C01D00125C7E59A
:1099900094F96330591C3FF4EBAD0125D6E54FF443
:1099A000403269E64FF44032ECE694F962104B1C09
:1099B00001D01546B4E594F963305D1C3FF460AD09
:1099C0001546C3E50003005000600040014B1B68D2
:1099D000184700BF00350020104B984201D00020EE
:1099E000704730B583B002A8002300F8013D0D4652
:1099F000FEF74AF90A4B1C7934B19DF80700FEF7CF
:109A000069F9112003B030BD01229DF807001D60E7
:109A10001A71FEF75FF9204603B030BD0020004008
:109A200000350020F0B55B4BD3F824218DB0BAB1DE
:109A30000022C3F82421D3F824210592059AD3F8F3
:109A400004216AB9544A02219068C3F8080391605E
:109A50009268C3F8042301221A625A610DB0F0BD66
:109A60004C4C4D4DD4F80431002B2FD00023C4F8BA
:109A7000043105F10C070FCF07AED4F804E13F68BD
:109A8000CDF810E00FC695F82E30049A3760002B01
:109A900036D02B7B012B79D0D4F84C250892022BA1
:109AA00071D03C4BD3F84C253A4B09920022C3F8B5
:109AB0006021D3F8601102910299C3F85C21D3F8B8
:109AC0005C310393039B95F8302028E0C4F84831BB
:109AD000D4F848212B7B0192019A002B3AD105F151
:109AE0000C070FCF07AE0FC695F830203B683360E8
:109AF000EAB92A4BC4F80022AA60C4F8083316E079
:109B0000C4F86031D4F860210292029AC4F85C3142
:109B1000D4F85C3195F830200393039B3AB91D4B80
:109B20001E480021C3F80012A960C3F808031949B0
:109B3000D1F8C434C1F8C43499071DD501238DF878
:109B400018300AB985F82F202B68696806A898474D
:109B50000DB0F0BD4FF4007140F202220F4BC4F87B
:109B60000012AA60C4F80833AB68C4F804330123B8
:109B7000A36023620DB0F0BD13F0040318BF0223ED
:109B80008DF81830DDE7D4F83C258DE7D4F83C3566
:109B9000089386E7003000400835002002029C014F
:109BA0002DE9F84F0779DFF81081342404FB07F41E
:109BB00008EB040595F82D6016B10820BDE8F88F74
:109BC0008A4683463849006899461646FFF704FFDF
:109BD00010B11120BDE8F88F48F80460A860C5F8FE
:109BE000049085F82F0085F830009AF80D3085F83C
:109BF0003230DAF800301F2B86BF03F01F032B49E9
:109C00004FF0A04103F5E07340F20C6241F82320CD
:109C1000DAF804301F2B86BF03F01F0323494FF0EF
:109C2000A04103F5E07340F20C6241F82320DBF819
:109C30000030DAF80020DAF80410C3F80825C3F879
:109C40000C15DAF80820C3F82425E6B1DBF800107B
:109C50009AF80C30090B4AB2002A1CDB02F1604270
:109C600002F561425B01DBB282F80033DBF80030C1
:109C70000F4C1B0B5AB2520903F01F03012101FACA
:109C800003F344F82230342303FB0783012283F8D3
:109C90002D20BDE8F88F074A01F00F015B010A444F
:109CA000DBB21376E2E700BF259A02000003005002
:109CB00000E100E0FCEC00E00835002003790649F3
:109CC0000268342000FB03130220062183F82D00D4
:109CD000C2F80015704700BF083500202DE9F04F8D
:109CE0008DB015469DF85840002C02F060444FF0AE
:109CF00000020CBF94464FF0200CB4F1005F0892B4
:109D0000079209920A920B9203D010200DB0BDE881
:109D1000F08F90F804B0DFF844A106684FF03408E3
:109D20001F4608FB0BA84B4BC6F8083398F82F309A
:109D300003F0FF093BB1D8F80830C6F8043311200E
:109D40000DB0BDE8F08F8DF81D1008970A9507AC8F
:109D50008E460FCC01944FF0010488F82F40C6F8CE
:109D600088E5C6F80491D6F804E1CDF810E008F1D2
:109D70000C0EAEE80F00049BC6F82491D6F82431EF
:109D80000593019B059A1B68C6F8509588F830909A
:109D9000C6F84095CEF80030C6F84455C6F8487568
:109DA000BCF1000F18D14FF4007240F20223C6F844
:109DB00000224FF48271C8F808303423012203FBDB
:109DC0000BF33262B2605AF803005344A0B19B68AF
:109DD000C6F80433002099E71F4B4FF48072C6F891
:109DE0000022C8F80830C6F84891D6F848310393E5
:109DF000039B4FF4A471E0E71046314402E0D6F82B
:109E00002421D2B90B68002BF9D0342303FB0BAA11
:109E1000D6F8C434C6F8C43400228AF82F20BBB167
:109E200013F0020F48F2012048F2022208BF03207B
:109E300013F0040F18BF104668E7C6F82431D6F8AF
:109E400024310693069B30624FF482717061D4E72F
:109E500018465BE702029C0100020400083500205E
:109E60002DE9F04F02F060448BB01646B4F1005F6C
:109E70004FF000020692059207920892099203D0D1
:109E800010200BB0BDE8F08F90F804B0DFF818A1F7
:109E900007684FF0340808FB0BF89E460AEB0809E8
:109EA000404BC7F8083399F82F3003F0FF053BB15A
:109EB000D9F80830C7F8043311200BB0BDE8F08F93
:109EC0004FF001038DF81510CDF818E008968DF8C5
:109ED000143005AC8C460FCC01944FF0010489F886
:109EE0002F40C7F888C5C7F80451D7F804C1CDF88A
:109EF00008C009F10C0CACE80F00029BC7F8245114
:109F0000D7F824310393019B03981968C7F850557B
:109F100040F202234FF48052C7F8405589F8305080
:109F2000C7F83465CCF80010C7F838E5C7F8002248
:109F3000C9F8083001233B623B605AF808302BB166
:109F4000D9F80830C7F8043328469AE7012302E01D
:109F5000D7F82411D9B9D7F80421002AF8D034232E
:109F600003FB0BAAD7F8C434C7F8C43400228AF81C
:109F70002F20ABB113F0020F48F2012048F2022269
:109F800008BF032013F0040F18BF104679E7C7F885
:109F90002421D7F824210492049A3B627B61DAE7FA
:109FA00018466EE702029C010835002030B56E4A63
:109FB000D2F8043399058BB05BD5D2F82431002B4D
:109FC00057D00023C2F82431D2F8243103934FF440
:109FD0000171664B0398C2F8081393F8291009B968
:109FE00001215160604902228DF81820D1F88024A7
:109FF000C1F880249869D9680992002208900791D5
:10A000009A6193E81200DA6106A8A047564AD2F88E
:10A010001C31C3B1554B186A5969884265D293F80F
:10A02000280000F0FF0400285FD1C2F81C41D2F8DC
:10A030001C11029102999C68186A196A205C01310E
:10A040001962C2F81C05484AD2F844317BB100219C
:10A05000464BC2F84411D2F8440193F829100090FD
:10A06000009809B1012111609A69002A52D10BB000
:10A0700030BD3D4AD2F804335B07C7D5D2F808316A
:10A08000002BC3D0394B9969002952D00021C2F866
:10A090000811D2F8081104910499D868596AD2F8C5
:10A0A000182542545A6A996901325A625A6A8A4298
:10A0B000ACD1DA69002A45D193F8292012B92A4A8D
:10A0C00001215160284A4FF40171C2F80813596AFE
:10A0D000DA6808910024012007928DF8180093E8AF
:10A0E00006009C6106A8904790E71F4A0020C2F82E
:10A0F0001C01D2F81C210192019A0029A3D09A6870
:10A100008DF8180008915861079206A893E8060098
:10A11000904798E70022586AD9689A61012208900E
:10A1200007918DF8182006A893E8060090470BB019
:10A1300030BDC2F80811D2F8080105900598D2F890
:10A140001825B3E7DD685C6A18699A61012100226D
:10A15000D860DA615A628DF818100795089493E870
:10A16000060006A8904751E7002000403C3500203B
:10A170002DE9F0416F4E05792C2303FB056382B076
:10A1800093F82A301BB1082002B0BDE8F0810F46D9
:10A190000446694900689046FFF71EFC18B111207B
:10A1A00002B0BDE8F0813B68591C19D01F2B4FF05D
:10A1B00001028ABF61494FF0A04103F01F0302FA78
:10A1C00003F3C1F808353B681F2B86BF03F01F035C
:10A1D0005A4A4FF0A04203F5E073032142F82310DE
:10A1E0007B685A1C0BD01F2B86BF03F01F03534AFA
:10A1F0004FF0A04203F5E073002142F823102368DA
:10A20000BA69C3F82425397D7B7D22680B43C2F8E7
:10A210006C3597E806002368C3F81425C3F80C15BD
:10A220003B7D012B49D02C2303FB05F3F218C2F828
:10A2300004803A69F250B8F1000F2DD023683A7FBC
:10A240003F4F0021C3F81C11D3F81C310093236841
:10A25000DDF800E0C3F84411D3F8441123680191FC
:10A260000199C3F804732168090B4BB2002B58DB2A
:10A2700003F1604303F561435201D2B283F8002336
:10A280002368304F1B0B5AB2520903F01F03012100
:10A2900001FA03F347F822302C23246803FB0563FB
:10A2A000002204250121C4F8005583F82A109A6180
:10A2B000DA6183F829205A6166E7BB68591C0BD024
:10A2C0001F2B86BF03F01F031C494FF0A04103F56D
:10A2D000E073002241F82320FB685A1C1AD01F2B80
:10A2E0008ABF16494FF0A04103F01F03012202FA72
:10A2F00003F3C1F80835FB681F2B88BF03F01F0369
:10A3000003F5E0738CBF0D494FF0A041032241F8E3
:10A310002320FB682268B968C2F80835C2F8101516
:10A3200081E7094B01F00F0152010B44D2B21A76BA
:10A33000A6E700BF3C350020AD9F0200000300509F
:10A340008000020000E100E0FCEC00E0F0B5304EDF
:10A3500005792C2303FB056385B05C6914B11120DA
:10A3600005B0F0BD1C62996083F828405A6102680C
:10A37000C2F81C41D2F81C11026802910121029F0F
:10A3800091600268D3F808E0C2F81C41D2F81C11B1
:10A3900001910199D3F820C0196A5F681EF80CC0BA
:10A3A00001311962C2F81CC517B1204605B0F0BDD5
:10A3B0001A6A5C690168944203D819E093F828206E
:10A3C000F2B9D1F81C21002AF8D0C1F81C71D1F8DB
:10A3D0001C210392039AD3F820C01A6A1EF80CC0FD
:10A3E00001321A62C1F81CC51A6AA242E9D3016897
:10A3F000D1F81C31002BFBD00123CB60002000E002
:10A400000F202C2303FB056300225A61A8E700BF3D
:10A410003C3500200379044A2C2101FB03235869B1
:10A42000003018BF012070473C350020F0B4544D77
:10A4300004792C2303FB045386B05F6827B10368BB
:10A440004FF40176C3F808632C2303FB04539E6981
:10A450006EB1DE690EB3002F00F08F8003684FF4F9
:10A4600001721120C3F8042306B0F0BC704793F8C2
:10A4700029709A61D9605E62DE61002F2FD02C2393
:10A4800003FB04535A6882B103684FF40172C3F8A6
:10A490000423002006B0F0BC7047DA6119612C2358
:10A4A00003FB04535A68002AEED10168C1F8442125
:10A4B000D1F844210392039A0268D2F82461D2F8B9
:10A4C0000871D2F84411E7B9002948D1002EF4D020
:10A4D0002C2303FB04540023A3610320DAE7036861
:10A4E000C3F82471D3F8242103680192019AC3F8B8
:10A4F0000871D3F8082103680292012202991A60B8
:10A50000BDE7002EE4D161BB9E6996B1C2F8081187
:10A51000D2F8081104910499DE68596AD2F8182516
:10A5200072545A6A996901325A625A6A9142C3D87E
:10A5300008E0C2F80861D2F8081105910599D2F82F
:10A5400018255B6A2C2303FB0454002294F829305D
:10A55000A2616BB103680121104619609AE7002ED1
:10A56000B6D12C2303FB04540023A3610F2091E7F1
:10A5700002680121184651608CE711208AE700BF6C
:10A580003C35002070B5484BD3F8242188B0002A10
:10A5900053D1D3F81011F1B9434BD3F8442152B140
:10A5A0000021424AC3F84411D3F844419069019410
:10A5B000019C00285DD13C4BD3F820214AB10021F9
:10A5C000C3F82011D3F82001384A00900098506950
:10A5D00028BB08B070BDC3F81021D3F81011334860
:10A5E000039103998469D3F83C15A142D4D1C4697D
:10A5F000002C4DD0D3F80062C568846126F0200697
:10A60000C3F800620369C26101220691C360016858
:10A61000436805958DF8102004A89847BCE7D3F847
:10A620004C05936806908DF810105161059304A8AD
:10A6300092E80A00984708B070BD0021C3F82411C1
:10A64000D3F82421029202228DF81020029AD3F826
:10A650008004164AC3F880040790D3F83C05D368F9
:10A6600006909161D16105931168536804A89847D9
:10A6700092E7D3F83C35D068069301239161D1610C
:10A6800005908DF8103004A892E80A00984792E7E8
:10A69000C2688461012306918DF81030059290E81C
:10A6A0000A0004A8984777E700200040683500209A
:10A6B0002DE9F04304797F4EE7003B1906EB830355
:10A6C00085B093F820301BB1082005B0BDE8F083B9
:10A6D00089460546784900689046FFF77DF918B12C
:10A6E000112005B0BDE8F083D9F80030591C1AD00C
:10A6F0001F2B4FF001028ABF70494FF0A04103F0B9
:10A700001F0302FA03F3C1F80835D9F800301F2BF4
:10A7100086BF03F01F03694A4FF0A04203F5E073C0
:10A72000032142F82310D9F804305A1C0BD01F2BF8
:10A7300086BF03F01F03614A4FF0A04203F5E073A8
:10A74000002142F823102B68D9F81820C3F82425DB
:10A7500099F8141099F815202B680A43C3F86C2552
:10A760002A68D9F80030D9F80410C2F80C35C2F8BC
:10A77000141599F81430012B5AD03A199200B318D5
:10A78000C3F80480D9F81030B350B8F1000F40D0AE
:10A79000296899F81C20DFF82CE10023C1F810315A
:10A7A000D1F8101100912968DDF800C0C1F82031FE
:10A7B000D1F8201101912968DDF804C0C1F82431D5
:10A7C000D1F8241102912968DDF808C0C1F844319C
:10A7D000D1F844112B6803910399C3F804E3296865
:10A7E000090B4BB2002B5CDB03F1604303F56143C3
:10A7F0005201D2B283F800232B68DFF8CCE01B0BA8
:10A800005AB2520903F01F03012101FA03F34EF873
:10A8100022303C442A6806EB8404002301250821E9
:10A82000C2F8001584F82050A361E36163614CE72E
:10A83000D9F80830591C0BD01F2B86BF03F01F031B
:10A840001E494FF0A04103F5E073002241F8232098
:10A85000D9F80C305A1C1CD01F2B8ABF17494FF057
:10A86000A04103F01F03012202FA03F3C1F80835E7
:10A87000D9F80C301F2B88BF03F01F0303F5E073DA
:10A880008CBF0E494FF0A041032241F82320D9F894
:10A890000C302A68D9F80810C2F80835C2F810152B
:10A8A0006BE7074B01F00F0152010B44D2B21A764D
:10A8B000A2E700BF6835002085A502000003005014
:10A8C000FCEC00E01003020000E100E001F0604356
:10A8D000B3F1005F01D010207047F0B50579204E2C
:10A8E000EF007C1906EB840483B0636913B1112077
:10A8F00003B0F0BD6261A1600268C2F82031D2F8F5
:10A9000020E10268CDF804E0DDF804E0C2F8583137
:10A91000D2F8582100920268DDF800E0D4F814E083
:10A92000C2F84415C2F848E50268012191606268E6
:10A930000AB11846DCE7036800E079B9D3F82021B2
:10A94000D3F85811002AF8D0002914BF0F20002096
:10A950007B1906EB830300225A61C9E70F20F7E752
:10A96000683500200379054A03EBC30302EB830338
:10A970005869003018BF0120704700BF68350020BB
:10A9800001F06043B3F1005F01D010207047F0B5D3
:10A990000479454EE3001D1906EB850583B06D680B
:10A9A00025B107684FF4047EC7F808E3234406EB9B
:10A9B00083039C696CB3DC69002C44D11961DA61B2
:10A9C0000368C3F81041D3F8105103680195019D45
:10A9D000C3F84441D3F8444103680094009CC3F891
:10A9E0003415C3F838250268D2F8003243F020034A
:10A9F000C2F800320479E5002B1906EB83035B688B
:10AA00004BB303684FF40472C3F80423002003B06F
:10AA1000F0BD9A61DC61D9600368C3F81041D3F8D6
:10AA2000105103680195019DC3F84441D3F8444196
:10AA300003680094009CC3F83415C3F838250368F4
:10AA400001221A60D6E705B303684FF40472C3F815
:10AA500004231120DBE7036801E0C1B9E8B9D3F8AA
:10AA60001021D3F84411D3F82401002AF5D02C4446
:10AA700000284FF0000306EB840614BF032018469D
:10AA80009942B36118BF0F20C1E71120BFE72C44E2
:10AA900006EB84060F20B261B9E72C4406EB84066E
:10AAA0000320B161B3E700BF683500200220FEF744
:10AAB0000FB900BF2DE9F0470D460646FEF736F9FF
:10AAC000012801D9BDE8F087012D04461AD003D32F
:10AAD000022D26D0BDE8F0871B48FCF725FF1B4B55
:10AAE0001B4A04EB44010B44125D9D78AA42E9D154
:10AAF000002DE7D0174B1B68002BE3D02846BDE89C
:10AB0000F0471847114F4FEA400808EB0003FA18C6
:10AB1000FD5C53785BB9A04447440D4BBA781A5595
:10AB2000E6E70A4B00EB40041C446578E0E7DFF8F9
:10AB3000289005484A464FF40041FCF79FFE002844
:10AB4000E9D189F80060E6E7B0350020F035002053
:10AB500008360020003600208C35002010B5007823
:10AB6000FEF7E4F8012800D910BD074B00EB4000C8
:10AB7000184440780028F7D0044B1B68002BF3D012
:10AB8000BDE81040184700BFF03500200036002017
:10AB9000AB4B1B68DB0700D4704770B5A94EAA4DBC
:10ABA00033782C78FBB9172C1CD8DFE814F0E500BB
:10ABB000050105015D0070007D0090005700360022
:10ABC0002900360029009D00A200A200A200A200D8
:10ABD000A200C800D500F500430018001800FEF7D9
:10ABE0006BF82C7070BD994B1B7800203070002BD7
:10ABF00000F0F680FEF740F80120FEF73DF8D2E7BE
:10AC0000012318463370FEF763F800224FF48041A9
:10AC10008F48BDE87040FCF731BE01231846337001
:10AC2000FEF756F8002240F6CD418948BDE8704055
:10AC3000FCF724BE854B1B78002B00F0F28000202F
:10AC4000FEF71AF80120FEF717F80020FEF700F8CB
:10AC50000120FDF7FDFF15232B7070BD0020FDF7CF
:10AC6000F7FF07232B7070BD0020FDF7DDFF0028E4
:10AC700000F0CA800020FDF7FFFF46F26661032363
:10AC80002B7000227248BDE87040FCF7F7BD002031
:10AC9000FDF7CAFF002800F0BC800020FDF7ECFFA4
:10ACA0004FF400310423EBE70020FDF7BDFF00283F
:10ACB00000F0B4800020FDF7DFFF05232B70002299
:10ACC00041F69A116248BDE87040FCF7D7BD0020FC
:10ACD000FDF7FEFF06232B70002240F6CD415C48B5
:10ACE000BDE87040FCF7CABDFDF7E6FF0C232B70F2
:10ACF00070BD5848FCF718FED4F11104054672D017
:10AD0000002870D1012C13D0C82303FB04F44FF4A6
:10AD1000FA704FF400430021C3FB04014FF47A7230
:10AD2000002305F0E3FC2A4601464A48FCF7A6FD4D
:10AD30000220FDF78DFF454B01221A7070BD434B79
:10AD40001B78002B70D00020FDF796FF0120FDF747
:10AD500093FF12232B7070BD3C4B1B78002B69D0E6
:10AD60000020FDF789FF0120FDF786FF0020FDF799
:10AD70006FFF13232B7070BD344B1B78002B56D004
:10AD80000020FDF779FF0120FDF776FF3048FCF742
:10AD9000CBFD00232B7070BD2C4B1B78002B4CD0AF
:10ADA0000020FDF769FF0120FDF766FF0120FDF798
:10ADB0004FFF14232B7070BD0020FDF735FFC8B185
:10ADC0000020FDF759FF022C4EF2666118BF4FF4C8
:10ADD00000312C7000221E48BDE87040FCF74EBDCB
:10ADE000FDF75EFFDFE60220FDF746FF174B00226E
:10ADF0001A7070BDFDF72CFF43F2333141F69A1300
:10AE0000022C08BF1946E4E7FDF722FF41F69A112C
:10AE100035E7FDF71DFF43F2333143E7FDF718FF38
:10AE20004BE7FDF73DFF10E7FDF73AFF91E7FDF730
:10AE300037FFABE7FDF734FF98E7FDF731FFB5E7E4
:10AE4000F8350020FC350020043600208D35002028
:10AE5000D035002090350020012801D9002070470E
:10AE6000FDF750BF38B5BB4B1C6814F0010401D18D
:10AE7000204638BDB84C23780546E3B9172D00F2BB
:10AE80006781DFE815F0FC002001200163007700F6
:10AE90008B009F0055003200250032002500AD00D8
:10AEA000B400B400B400B400B400DB00EA000E014A
:10AEB0003F005D005D00A94B1B7800202070002B37
:10AEC00000F01681FDF7D8FE0120FDF7D5FED5E78D
:10AED000012318462370FDF7FBFE00224FF480414A
:10AEE0009F48BDE83840FCF7C9BC012318462370D1
:10AEF000FDF7EEFE002240F6CD419948BDE838400E
:10AF0000FCF7BCBC954B1B78002B00F01281002095
:10AF1000FDF7B2FE0120FDF7AFFE0020FDF798FE21
:10AF20000120FDF795FE8F4B15221A7000249FE734
:10AF30000020FDF78DFE8B4B07221A70002497E747
:10AF4000FDF7BAFE874B00241D7091E70020FDF746
:10AF50006BFE002800F0D6800020FDF78DFE46F243
:10AF60006661804B7E4803241C700022BDE8384097
:10AF7000FCF784BC0020FDF757FE002800F0D180CC
:10AF80000020FDF779FE4FF40031764B744804241D
:10AF90001C700022BDE83840FCF770BC0020FDF7B3
:10AFA00043FE002800F0C2800020FDF765FE6D4BD7
:10AFB0006B4805241C70002241F69A11BDE8384008
:10AFC000FCF75CBC0020FDF783FE664B644806245A
:10AFD0001C70002240F6CD41BDE83840FCF74EBC65
:10AFE000FDF76AFE5F4B0C221A70002440E75E48B2
:10AFF000FCF79AFC0446D5F111007CD0002C7AD1E4
:10B00000012814D0C82505FB00F54FF400434FF488
:10B01000FA700021C3FB05014FF47A72002305F09A
:10B0200065FB224601465048FCF728FC04460220F6
:10B03000FDF70EFE494B01221A7019E7474B1B78AA
:10B04000002B79D00020FDF717FE0120FDF714FE3C
:10B05000444B12221A7000240AE7404B1B78002B45
:10B0600070D00020FDF708FE0120FDF705FE00204E
:10B07000FDF7EEFD3B4B13221A700024F8E6374B28
:10B080001B78002B5BD00020FDF7F6FD0120FDF7BB
:10B09000F3FD3348FCF748FC324B002204461A709B
:10B0A000E6E62E4B1B78002B4FD00020FDF7E4FD89
:10B0B0000120FDF7E1FD0120FDF7CAFD294B142217
:10B0C0001A700024D4E60020FDF7AEFDF8B1002090
:10B0D000FDF7D2FD022D4EF2666118BF4FF400312C
:10B0E000204B1F481D700022BDE83840FCF7C6BB4E
:10B0F000FDF7D6FDC2E60220FDF7BEFD174B00228C
:10B100001A70B5E6FDF7A4FD41F69A1129E7FDF79F
:10B110009FFD43F2333141F69A13022D08BF1946C1
:10B12000DEE7FDF795FD43F233312EE7FDF790FDA5
:10B130003DE7FDF7B5FDF0E6FDF7B2FD88E7FDF769
:10B14000AFFDA6E7FDF7ACFD91E7FDF7A9FDB2E77E
:10B1500000248DE6F8350020FC3500208D350020D8
:10B16000D03500200436002090350020234B244A9F
:10B1700070B5196081070446106010D5214B224834
:10B1800013251226DD7040F2666202211E70FCF764
:10B1900015F80546C0B1E3072AD4284670BD10F063
:10B1A0000105FAD00120FDF7D1FD184A1848002109
:10B1B000FCF752FB05460028EFD1164A164801213C
:10B1C000BDE87040FCF748BBFCF750F80546002886
:10B1D000E1D10146114A1248FCF73EFBE207054661
:10B1E000DBD50120FDF7B2FD002DDED0284670BD75
:10B1F0000120FDF7ABFD284670BD00BF00360020E2
:10B20000F8350020F03500205411030091AB020006
:10B210006C110300ADAA0200641103005DAB0200D3
:10B2200068110300012801D907207047012A0BD0BB
:10B23000012917D00CD30229F6D10D4B00EB4000A9
:10B24000034400205A707047012908D00022EFE71C
:10B25000074B00EB4000034400209A70704700F158
:10B260001202D2B200EB400301490020CA547047D9
:10B27000F0350020012801D90620704708B5FDF7F8
:10B280005FFD1F2886BF0A4B00F01F004FF0A04350
:10B2900003EB80030020D3F8002722F44032C3F8E8
:10B2A0000027D3F8002742F44032C3F8002708BD36
:10B2B0000003005010B50388102B08D0112B05D1C6
:10B2C000264B18680138186038B110BD10BD234CEA
:10B2D000216881B10131216010BD01220221FFF7F7
:10B2E000A1FF48B3072827D01D4B1B68002BECD0CB
:10B2F000BDE81040184701220846FFF793FF48B108
:10B30000072807D0164B1B6803B198472168013105
:10B31000216010BD072202210120FFF783FF08B141
:10B320000728EFD1042202210020FFF77BFF00282D
:10B33000ECD00728E6D1E9E7072202210120FFF738
:10B3400071FF08B10728CFD1002108460A22FFF774
:10B3500069FF0028B9D00728C6D110BD10360020DB
:10B360000C36002008B50020FFF784FF10B1062836
:10B3700000D008BD0120FFF77DFF0028F9D0062886
:10B3800008BF002008BD00BF194B10B5186031B1CF
:10B3900001200C46FFF760FD30B102232370154BEE
:10B3A000186848B1002010BDFFF756FDE8B9114BF1
:10B3B000207018680028F5D101220221FFF732FF22
:10B3C00008B10728EFD1072202210120FFF72AFF49
:10B3D00008B10728E7D1002108460A22FFF722FF1B
:10B3E0000028DFD00728DED1DCE70B232370D6E767
:10B3F0000C360020103600202DE9F041684B1A6809
:10B4000088B0002A3CD1674F97F82E30002B45D1E9
:10B41000654B1A68002A5ED1644B1C68002C6AD107
:10B420007E699EB14FF000480125B6FA86F293007E
:10B4300003F58C7303F1804101F5E04128FA02F233
:10B44000086826EA020620B9002EEED108B0BDE851
:10B45000F081A3F58C730C6083F0040209680491F9
:10B46000C2F38002DB088DF819208DF818308DF8B2
:10B4700014503B68049A05A89847002ED5D1E5E7FB
:10B480000022484F1A60196897F82E3000910099F1
:10B49000002B39D097F82F30002B4ED1444B1A682F
:10B4A000002AB5D000221A6097F82D0019687B8B0E
:10B4B000019184B2A34201994ED85FD0384B3D4AE6
:10B4C000002119601B680293012302991360364B17
:10B4D0001A68002AA0D000221A6008A81B680393EB
:10B4E000022100F80C1D3B6803993A7498472F4BD2
:10B4F0001C68002C94D000221A601B680593059BE1
:10B500003A7408B0BDE8F081FA68786839898DF836
:10B5100014300690ADF81C10002A2CD02648398B28
:10B520007A600122FB607983398102603B6805A85B
:10B530009847002387F82F3066E7FB6878683989D9
:10B540008DF814200690ADF81C10A3B1398B7B60E8
:10B55000FA6079833981E9E73A897968164D1B1BCE
:10B560009BB292B2D21A01EB42027B83C5F82C2621
:10B57000C5F83006A2E700233B74D7E7FB684BB160
:10B580000D497A83012287F82F20C1F82C36C1F8A3
:10B59000300693E701227B8387F82F208EE700BFD8
:10B5A00004710040143600201071004014710040F6
:10B5B000007100400470004000700040234B93F87D
:10B5C0002C200AB108207047F0B5214C057819608D
:10B5D000C4F8F05545781F49C4F8F4556FF000459C
:10B5E0001A74C678C4F8085385B00A600D680395CC
:10B5F000039D41F8042C0439174D09680291029902
:10B600002A60817883F82E602E68144893F82E50B3
:10B610000196490183F82D205A6183F82F20C9B281
:10B62000802702260122DDF804E083F82C2080F830
:10B6300007130760C4F804630DB1C4F80423044B76
:10B6400001220020C3F8002505B0F0BD143600200B
:10B6500000700040047100401471004000E100E0FF
:10B66000244A137C0BB111207047F0B500F10C0493
:10B6700002EB44031B7923B992F82D30013382F891
:10B680002D304B788D7891F800E0CE784F791B0102
:10B690002D0205F4E06503F030032B430D790EF025
:10B6A000030E360343EA0E0306F480562D0433439B
:10B6B00005F4E0258E792B433F05050107F480173B
:10B6C000360605F1804502EB440405F5E04506F039
:10B6D00080723B430E7ACF79277113436671C5F8A8
:10B6E0001835CB79097AC5F81415C5F8103500203E
:10B6F000F0BD00BF14360020F0B42C4A2C4B1224AD
:10B70000C2F808431D7C022D82B01CD01C7C012C89
:10B710001FD093F82E405860022701250026C2F85A
:10B7200004731D74DE601981E4B9224BC2F82C0643
:10B73000C2F830161C601B680193019B15602046FF
:10B7400002B0F0BC70471120C2F8044302B0F0BC54
:10B750007047DC688CB102231120C2F8043302B0B8
:10B76000F0BC704793F82D40C2F82C063046598340
:10B77000C2F8304602B0F0BC704793F82E20D86073
:10B7800019836AB90B4A1368002BFCD0002313609D
:10B790001268064B0092009AC3F82C06C3F83016C4
:10B7A000024B0222C3F804230020C9E700700040C6
:10B7B0001436002000710040084A137CDBB2012BD4
:10B7C00001D00820704792F82E0010B9044A136087
:10B7D0007047044A00201360704700BF14360020F1
:10B7E000047000400070004076DF70477ADF7047D9
:10B7F0007CDF70477FDF70478FDF7047B1DF7047B6
:10B8000033DF7047014B01221A7070474936002020
:10B81000024A4FF4B171FBF73FBD00BFD8130300DC
:10B82000024A4FF4F971FBF737BD00BFD81303008C
:10B8300003782BB90379012B02D8024B01221A702D
:10B84000704700BF4A3600200C4B4A881B889A423A
:10B8500000D070470A8840F677239A42F9D1084A07
:10B8600008488B880849801A033BC0089BB2000433
:10B8700040F003001A46FBF7FDB800BFBC2A0020C9
:10B88000481D0300801D03002813030008B503783A
:10B8900003B108BD064B3B211888FFF7A5FF002820
:10B8A000F7D0044A40F2E711BDE80840FBF7F4BCCA
:10B8B000BC2A0020D813030008B503789BB903699C
:10B8C0001B78413B192B0ED8DFE803F012161C0D34
:10B8D0000D0D0D200D0D0D24280D0D2C0D0D300D11
:10B8E0000D0D0D0D0D0E08BDBDE8084001F016BB95
:10B8F000BDE8084001F02EBB01F06AFBBDE808403E
:10B9000001F06CBBBDE8084001F04EBBBDE808404B
:10B9100001F0E0BABDE8084001F0F4BABDE8084023
:10B9200001F0E4BABDE8084001F0C8BABDE808403B
:10B9300001F0B4BA08B50020FFF794FA98B9FFF700
:10B9400011FD50B9FFF75CFF00B908BD094A4FF47B
:10B950000771BDE80840FBF79FBC064A4FF406712B
:10B96000FBF79AFCEEE7034A4FF40571FBF794FCF2
:10B97000E5E700BFD813030008B50C490C4802F0F6
:10B98000A5FF60B9F7210A4802F0B8FF00B908BD69
:10B99000084A40F2BE21BDE80840FBF77DBC054ADD
:10B9A00040F2BB21FBF778FCECE700BF49B802008E
:10B9B000A4380020D8130300002110B508460E2239
:10B9C000FFF730FC28BB0F2202210020FFF72AFCE2
:10B9D000C8B9102200210120FFF724FC68B9112208
:10B9E00002210120FFF71EFC044620B10C4A40F260
:10B9F000D221FBF751FC204610BD094A40F2CF216D
:10BA0000FBF74AFCEBE7064A4FF43371FBF744FCC3
:10BA1000DFE7034A40F2C921FBF73EFCD3E700BF52
:10BA2000D81303000FB410B50F4B1B78C2B023B965
:10BA300042B0BDE8104004B0704745AB1A4602A8BA
:10BA40004499019303F074FD9DF808000028EFD09D
:10BA500002ACFCF7DDF814F8010F0028F9D142B070
:10BA6000BDE8104004B07047CA3A0020F0B585B078
:10BA700004460E461546FBF757F9FAF7CFFD0028A6
:10BA8000FBD141F201039C426ED060D944F2010324
:10BA90009C4241D044F202039C4231D13448354C9F
:10BAA0002B886A683449001BC008000440F001007C
:10BAB000FAF7E0FF314B1B68DB0700D500BE2A8890
:10BAC00069682D482E4DFFF7ADFF45F001050020B8
:10BAD000FDF7BEF80120FDF7BBF864244FF47A406F
